:1005FB0020636D0D0A002073746F700D0A00537425
:10060B006174653A73746F700D0A0053746174658D
:10061B003A666F72776172640D0A00537461746588
:10062B003A6261636B776172640D0A005374617493
:10063B00653A6C6566740D0A0053746174653A72A1
:10064B00696768740D0A0053746174653A6163637A
:10065B00656C65726174650D0A000D0A004469735F
:03066B003A200032
:1007EA00C100020B00000213000002090000010808
:0107FA0046B8
:0A048B007B007A00790DAF0CAE0B78
:100495008E168F178B188A19891AD3E5179400E5DC
:0A04A5001664809480500302053DA8
:1004AF007C277D101201F8EF2430F51BAE16AF1725
:1004BF007C037DE81201F87C007D0A1201F8ED241F
:1004CF0030F51CAE16AF177C007D641201F87C006E
:1004DF007D0A1201F8ED2430F51DAE16AF177C0022
:1004EF007D0A1201F87C007D0A1201F8ED2430F527
:1004FF001EAE16AF177C007D0A1201F8ED2430F501
:10050F001FE51B1201B2AB18AA19A91A900001E539
:10051F001C1201C4900002E51D1201C4900003E5F6
:0C052F001E1201C4900004E51F1201C45C
:02053B00802A14
:10053D00E4F51BF51CAB18AA19A91A851C82851B9D
:10054D008374301201C4051CE51C7002051B640583
:10055D00451B70E1AB18AA19A91A900005E4120108
:01056D00C4C9
:01056E00226A
:10029100E4F596F59512066E120003120837D2AFF7
:1002A100C2801207BF8E0B8F0C7C007D111201E6FC
:1002B1008E0B8F0C7C037DE81201F88E0B8F0C7F67
:1002C100C87E001208031207BF8E138F147C007DB5
:1002D100111201E68E138F147C037DE81201F88E52
:1002E100138F14E50A64014509706AC3740A950CF9
:1002F100E50B6480F8748098505BC3E50C9414E5B9
:100301000B64809480504EC3740A9514E513648085
:10031100F8748098503FC3E5149414E513648094F5
:1003210080503212048B7B007A00790D1207947B86
:10033100FF7A0579FB1207947BFF7A067901120790
:1003410094750846750846AD08E4FF12074DE4F5BB
:1003510009F50AD2802000030202A3C200E5152498
:100361009F70030203EA24FD700302040824F7705E
:100371000302046A24FA605324FC603114700302FE
:10038100045124FE7003020426240960030202A31F
:100391007BFF7A067909120794750832AD08E4FFEC
:1003A10012074DE4F509F50AC2800202A37BFF7A28
:1003B100067916120794750832AD087F0112074DB0
:1003C100750900750A01C2800202A37BFF7A0679D2
:1003D10026120794750832AD087F0212074D750980
:1003E10000750A02C2800202A37BFF7A06793712E6
:1003F1000794750832AD087F0312074D7509007522
:100401000A03C2800202A37BFF7A06794412079491
:10041100750832AD087F0412074D750900750A048D
:10042100C2800202A37BFF7A067952120794050863
:10043100AF081206BBAF08120704AF08120845AF98
:10044100081208457BFF7A0679651207940202A318
:100451001508AF081206BBAF08120704AF0812084F
:1004610045AF081208450202A312048B7BFF7A06EE
:1004710079681207947B007A00790D1207947BFF4B
:0A0481007A0579FB1207940202A32A
:03002300020818B8
:10081800309807C298859915D200309902C299324A
:10066E0043BA8090FFF2E4F0F5F190FFF074FFF0E2
:10067E00A374F1F0C2A3C2A290FF34E4F090FF3055
:10068E00F0A3F0A374FFF0A374F8F090FF24E4F04D
:10069E0090FF20F0A3F0A374FFF0A374F8F075F5AB
:0D06AE000C43F58053BA7FE4FDFF02074DB9
:1006BB00EF604043BA80AC07E41200D0A804A90550
:1006CB00AA06AB07E4FFFE7DC87C42120029A804F2
:1006DB00A905AA06AB077F207EFE7DFF7C48120092
:1006EB002912010490FF22EEF0A3EFF053BA7F43DF
:0906FB00F5042253F5FBD2A32201
:10070400EF604043BA80AC07E41200D0A804A90506
:10071400AA06AB07E4FFFE7DC87C42120029A804A8
:10072400A905AA06AB077F207EFE7DFF7C48120048
:100734002912010490FF32EEF0A3EFF053BA7F4385
:09074400F5082253F5F7D2A222B8
:10074D008F168D17AF171206BBAF17120704E516DC
:10075D0014601614601914601C1460222404702691
:10076D00C2A7C2A6C2A5C2A422D2A7C2A68013C286
:10077D00A7D2A68004D2A7C2A6D2A5C2A422C2A780
:07078D00D2A6C2A5D2A422EE
:10000300759850538EBF538EFE53890F758BE675CB
:0B0013008DFFC2ABD28ED29CD2AC227B
:060794008B168A1789187C
:10079A00E4F519F51AAB16AA17A918851A8285194C
:1007AA0083120185FF600D120845051AE51A70E5E6
:0407BA00051980E1BC
:0107BE002218
:0C084500C2AC8F99C2993099FDD2AC2250
:0707FB0001230002210000B0
:0E0837005389F0438901E4F58CF58AC2A922A9
:1007BF00D295120895C2953094FDD28C2094FDC22B
:1007CF008CAF8CEFFEAD8A7C00E42DF522EC3EF56C
:0B07DF0021E4F58CF58AAE21AF222248
:0E08280000007F0A7E1F7D93DDFEDEFCDFFAFE
:01083600229F
:10080300EF1FAC0670011E4C600A7D0C7CA9DCFE58
:04081300DDFC80EC9C
:0108170022BE
:080851007F067ED3DEFEDFFC12
:01085900227C
:08085A007F017E92DEFEDFFC4F
:010862002273
:0608870000007F06DFFE09
:01088D002248
:06088E0000007F57DFFEB1
:010894002241
:0608950000007F1BDFFEE6
:01089B00223A
:080863007F0B7E7EDEFEDFFC50
:01086B00226A
:08086C007F0C7EA9DEFEDFFC1B
:010874002261
:080875007F357E84DEFEDFFC0E
:01087D002258
:08087E007F077EFEDEFEDFFCB9
:01088600224F
:1000260002017AEC5D046005E85904700302017070
:1000360012013B580460F6EC4860F2EC7004FDFED9
:10004600FF22C860DB2481C85009C39860025006AD
:100056000201779850CAF582E9294B4A7005AB82AE
:1000660002016675F0007C1A7880C3EF9BEE9AED6C
:1000760099400DC3EF9BFFEE9AFEED99FDE842F025
:10008600DC23ACF0D0E0FFD0E0FED0E0FDAB822078
:10009600E7101BEB60BAEC2CFCEF33FFEE33FEED02
:1000A60033FD020152E803F830E705C0F075F000B1
:1000B600EF2FFFEE33FEED33FD40B830E7C280AAE6
:1000C60075F020800E75F010800575F0087D007EB5
:1000D600007F003392D530D50312022EEC33401048
:1000E600EF33FFEE33FEED33FDEC33FCD5F0ED22BE
:0E00F600E5F0247EA2D513CC92E7CDCEFF22FA
:10010400EDD2E7CD33EC3392D524814006E4FFFEF3
:10011400FDFC22FCE4CFCECDCC24E0501174FF8052
:10012400EDC3CC13CCCD13CDCE13CECF13CF0470EF
:07013400F030D5DE02022EBF
:10013B00E9D2E7C933E833F892D5EDD2E7CD33EC0A
:07014B0033FC5002B2D52283
:10015200EC30E7100FBF000C0EBE00080DBD00040E
:100162000BEB6014A2D5EB13FCED92E7FD2274FFBA
:10017200FCFDFEFF22E480F8A2D574FF13FC7D8013
:03018200E480EF27
:0300000002056F87
:0C056F00787FE4F6D8FD7581230205B604
:10018500BB010CE58229F582E5833AF583E022502F
:1001950006E92582F8E622BBFE06E92582F8E22279
:0D01A500E58229F582E5833AF583E4932293
:1001B200BB010689828A83F0225002F722BBFE012C
:0201C200F32226
:1001C400F8BB010DE58229F582E5833AF583E8F071
:1001D400225006E92582C8F622BBFE05E92582C81D
:0201E400F22205
:1001E600EF8DF0A4A8F0CF8CF0A428CE8DF0A42E2D
:0201F600FE22E7
:1001F800C2D5EC30E709B2D5E4C39DFDE49CFCEE22
:1002080030E715B2D5E4C39FFFE49EFE12023CC35B
:10021800E49DFDE49CFC800312023C30D507C3E456
:060228009FFFE49EFE2290
:0E022E00C3E49FFFE49EFEE49DFDE49CFC22E1
:10057B00020291E493A3F8E493A34003F68001F203
:10058B0008DFF48029E493A3F85407240CC8C33381
:10059B00C4540F4420C8834004F456800146F6DF50
:1005AB00E4800B01020408102040809007EAE47EEF
:1005BB00019360BCA3FF543F30E509541FFEE49345
:1005CB00A360010ECF54C025E060A840B8E493A30C
:1005DB00FAE493A3F8E493A3C8C582C8CAC583CA37
:1005EB00F0A3C8C582C8CAC583CADFE9DEE780BEEF
:0108020000F5
:10023C00BC000BBE0029EF8DF084FFADF022E4CCA6
:10024C00F875F008EF2FFFEE33FEEC33FCEE9DEC6F
:10025C00984005FCEE9DFE0FD5F0E9E4CEFD22EDB5
:10026C00F8F5F0EE8420D21CFEADF075F008EF2FFF
:10027C00FFED33FD4007985006D5F0F222C398FDF0
:05028C000FD5F0EA228D
:00000001FF
